:020000040800F2
:10000000B83200201D310008E5300008E730000854
:10001000E9300008EB300008ED3000080000000077
:10002000000000000000000000000000EF300008A9
:10003000F130000800000000F3300008F53000083F
:10004000393100083D3100084131000845310008D0
:10005000493100084D3100084D2C00087B2C000868
:1000600051310008A92C0008553100085931000809
:100070005D31000861310008653100086931000810
:100080006D310008D714000871310008753100087F
:10009000793100087D310008813100088531000880
:1000A000893100084F2B00088D310008913100087C
:1000B000E314000895310008993100089D310008CB
:1000C000A1310008A5310008A9310008AD310008B0
:1000D000B1310008B5310008B9310008BD31000860
:1000E000C1310008C5310008C931000800F5E070D1
:1000F0000268914203D280680028F9D170474368B2
:100100001A449142F7D270471B49D1F8D801A8B9D7
:100110004FF48050C1F8DC014FF480324FF0FF30D3
:10012000C1F8E401C1F8E801C1F8E0210420C1F8F8
:10013000EC01C1F8BC011148C1F8D8010120704799
:1001400001F1080313F0070F0EBF0023C3F10803EA
:1001500003F007031944D21A8161C26042F001031F
:100160004B60091D4FF0280C41F802C0024AD2F83A
:10017000E831C361704700002C2B00206859883C8F
:100180002DE9F04F83B00646AFF30080F52E1E4DEB
:1001900080F01D820B2E31BF10260B36F608F600BC
:1001A0002868F408E04010F0030F4CD0C04300F082
:1001B0000100041905F1280000EBC4074FEAC40848
:1001C000BE687068C008C000404518BF00F065FFF9
:1001D000D6F80890BE4208BF00F05FFF4E4508BF4A
:1001E00000F05BFF7068C008C000404518BF00F019
:1001F00054FF4F450AD12868012101FA04F420EA8E
:1002000004042C6010E000BF2C2B002028698145DD
:1002100008D3D9F80C10B14204D1C7F80890C9F836
:100220000C7001E000F039FF48F00300311D7060F0
:10023000301D51F8082042F0010240F8082006F174
:10024000080800F022BFA968B14280F0B7830028F7
:1002500000F0A580012707FA04F1490000FA04F430
:10026000484201430C4060420440641E200B00F0F1
:100270001000C440610901F00801CC40A20802F05E
:100280000402D440630803F002030818DC4010188D
:10029000C4F340081818404424FA08F4241805F15F
:1002A000280000EBC40A4FEAC408DAF80890D9F82D
:1002B0000400C008C000404518BF00F0EEFED9F8A9
:1002C00008B0D14508BF00F0E8FED94508BF00F0EE
:1002D000E4FED9F80400C008C000404518BF00F093
:1002E000DCFEDA4506D1286807FA04F420EA0404A3
:1002F0002C600DE029698B4508D3DBF80C004845DC
:1003000004D1CAF808B0CBF80CA001E000F0C5FE9B
:10031000A8EB060846F0030009F10402C9F804003E
:1003200048F00101915109EB0602019242F8088060
:10033000AC684FEAD40ABAF11F0F88BF00F0ADFED7
:100340002CB3CDF800A005F128006E6900EBCA0AB5
:10035000D346102C38BF00F0A0FE2968009821FA7F
:1003600000F2D30703D487400F432F6007E0DAF889
:100370000800296988422CBF834600F08EFECAF827
:100380000860CBF80C60C6F808B0C6F80CA0C5F839
:10039000088009F108080198686100F076BE686875
:1003A000002800F02D8341420840401E010B01F05F
:1003B0001001C840420902F00802D040830803F04F
:1003C0000403D840440804F002045118E0405918CE
:1003D000C0F34007611805F5987C3944F84040188F
:1003E0005CF820104868C008C0008946A0EB060AE7
:1003F00008E001464868C008C000801B50453CBF6B
:100400008246894608690028F3D149690029F1D15B
:1004100028698145C0F0D880D9F80410C90806EBD6
:100420000A07C900B94218BF00F037FE09EB060001
:100430008145019080F0C880D9F80C40D9F8188027
:100440004C450DD0D9F808002969884223D3C268E9
:100450004A4504BFA16849451DD1C460A0601CE0A5
:1004600009F114010C6834B909F110010C68A4B148
:1004700001E011460C6804F114021068002802BF64
:1004800004F1100210680028F3D12869814202D3D8
:1004900000220A6001E000F000FEB8F1000F3ED03B
:1004A000D9F81C0005F5987101EB80010A689145A7
:1004B0000AD13CBB6A68012303FA00F022EA00007B
:1004C0006860002008602AE02969884517D3D8F8B9
:1004D0001000484514BFC8F81440C8F81040F4B1E3
:1004E00029698C4219D3C4F81880D9F8100058B182
:1004F000884226BF2061846100F0CFFD04E000F057
:10050000CCFDECE70C60EBE7D9F8140038B12969B1
:10051000884202D36061846101E000F0BEFDBAF15F
:10052000100F0CD247F0030009F10401C9F80400D0
:1005300009F10400CA5942F00102C2513EE046F0FE
:10054000030109F10402C9F804104AF001009051B6
:10055000019941F80AA0A8680090C4081F2C88BF20
:1005600000F09BFD009828B305F128000099D5F80C
:10057000148000EBC407BB46102938BF00F08DFD86
:10058000286820FA04F1CA0705D4012101FA04F40D
:1005900004432C6006E0B868296988422CBF834672
:1005A00000F07BFDC7F80880CBF80C80C8F808B0D5
:1005B000C8F80C70C5F808A00198686119F108081E
:1005C00000F0FC8100F061BD00F067FDF6E116F17E
:1005D000400F28BF4FF0FF3680F0F0810B36F60851
:1005E0006B68F600002B00F0E9810027300AC6F1A5
:1005F000000808BF002423D0B0F5803F28BF1F2487
:100600001ED2A0F58071090C01F008018840A0F508
:100610008052120C02F004029040A0F58044240C99
:10062000C1F10E0104F00204891A091BA04001EB7C
:10063000D031C81D26FA00F404F0010404EB410493
:1006400005F5987151F8240040B31F2C0FBFB44634
:100650004FEA540CCCF1190C06FA0CFCBE4641468C
:1006600001E04FEA4C0C4268D208D200921B8A4249
:1006700007D3426910304FEADC7850F828003AB1CD
:1006800003E011000746F4D105E0824218BF964608
:100690000028E6D170468846B8BBC7BB012101FAE5
:1006A00004F4640060420443234000F08781584210
:1006B00003405B1E180B00F01000C340590901F005
:1006C0000801CB409A0802F00402D3405C0804F011
:1006D00002040818E3401018C3F3400C201805F575
:1006E000987E604423FA0CF31B185EF823000CE09C
:1006F00008464168C908C900891B41453CBF884676
:10070000074601690029F3D140690028F1D1002F83
:1007100000F05481A868801B804580F04F812969D2
:100720008F42FFF451AF7868C00806EB080AC0009A
:10073000504518BF00F0B1FC07EB060B5F45BFF456
:1007400043AFFC68D7F81890BC420CD0B868296950
:10075000884223D3C268BA4204BFA168B9421DD1FE
:10076000C460A0601CE007F114010C6834B907F103
:1007700010010C68A4B101E011460C6804F11402E8
:100780001068002802BF04F1100210680028F3D19D
:100790002869814202D300220A6001E000F07DFC5A
:1007A000B9F1000F3BD0F86905F5987101EB8001B4
:1007B0000A6897420AD134BB6A68012303FA00F041
:1007C00022EA000068600020086028E02969894565
:1007D00016D3D9F81000B84214BFC9F81440C9F8AC
:1007E0001040E4B129698C4217D3C4F818903869D5
:1007F00058B1884226BF2061846100F04EFC04E0BD
:1008000000F04BFCEDE70C60ECE7786938B1296942
:10081000884202D36061846101E000F03EFCB8F1DF
:10082000100F0BD24AF00300391D7860381D51F8C3
:100830000A2042F0010240F80A20BBE046F0030122
:100840003A1D796048F0010090514FEAD8004BF80A
:1008500008801F2822D805F1280101EBC00429686F
:1008600021FA00F2D307A14605D4012202FA00F0D2
:100870000843286006E0A068296988422CBF8146A9
:1008800000F00BFCC4F808B007F10800C9F80CB080
:1008900040F8069007F10C018C518BE05FEA1820BC
:1008A00008BF002123D0B0F5803F28BF1F211ED2F2
:1008B000A0F58072120C02F008029040A0F5805161
:1008C000090C01F004018840A0F580431B0CC2F123
:1008D0000E0203F00203521AD21A984002EBD032F1
:1008E000D01D28FA00F101F0010101EB420105F5EC
:1008F000987202EB810007F11402CBF81C10002360
:10090000935107F1100293516A6822FA01F3DC0750
:1009100011D4012303FA01F111436960C0F800B05A
:10092000CBF8180007F1080107F10C0040F806B0F9
:1009300041F806B03EE002681F291DBF4908C1F119
:10094000190108FA01F1414600E002465068C0086A
:10095000C000404518D002F11003C80F03EB80031C
:10096000490018680028F0D12869834220D3C3F8D1
:1009700000B007F10C01CBF8182041F806B007F1E0
:10098000080040F806B015E0296990688A4228BF3F
:1009900088420DD3C0F80CB007F10801C2F808B0C6
:1009A000885107F10C0082510022CBF8182001E099
:1009B00000F073FB17F1080840F06783A868B042A5
:1009C0001ED3811B6A6910290AD3141DA96041F046
:1009D00001009319A051595046F0030656600BE0F0
:1009E0000021A96040F00304111D5460141D0E582D
:1009F00046F00106265000236B6102F1080844E32B
:100A0000E8688642C0F03183D5F8D80108B9FFF70D
:100A10007BFBD5F8E01188192F30491E20EA01012F
:100A20008E4280F03083D5F8B80140B1D5F8B021BE
:100A300089188A4280F027838842C0F0248300F01E
:100A40002FFB00281CBF076810F1010F00F01B836B
:100A5000D5F8B011AC697918C5F8B011D5F8B02146
:100A6000D5F8B4118A4238BF0A46C5F8B42114BB80
:100A7000296909B1884200D228610021C5F8CC114A
:100A80004FF0FF31D5F8D8216A622962C5F8C0015C
:100A9000C5F8C471002105F128029260D26002F10C
:100AA000080353611361891C10321F29F5D9A7F17E
:100AB0002802014619E005F5E071804600E08968EA
:100AC000B9B108684A6802449045F8D1087B02072A
:100AD0000FD40A6894420CD34B681A44944208D24B
:100AE000FB184B602146E8683A182846FFF728FBB8
:100AF000B8E22869804538BFC5F8108005F5E07078
:100B000008EB070100E08068002800F0B08102686F
:100B10008A42F8D1017B0A0700F1A9810168C0F877
:100B200000804268BF18476008F1080010F0070F06
:100B300004D0C0F1080000F00700804401F1080271
:100B400012F0070F06D001F10800C0F1080000F014
:100B5000070001440F46A7EB080008EB0604A0EBD2
:100B6000060B46F00306C8F80460BC4228BF00F03C
:100B700094FA3879C10758BF00F08FFABBF1100F13
:100B800038BF00F08AFAA869874208D1E9688B4427
:100B9000C5F80CB0AC614BF00100606064E16869BD
:100BA00087420AD1A9686C618B44C5F808B04BF044
:100BB0000100606044F80BB056E1786800F0030172
:100BC000012940F0B380C008C000C1081F2902906D
:100BD0003DD8BA680092FE680191B74208BF00F0A4
:100BE0005CFA0098874208BF00F057FA78680199CC
:100BF000C008C000B0EBC10F18BF00F04EFA019959
:100C0000009A05F1280000EBC100824208D011468D
:100C10002A699142C0F08580CA68BA4240F081805A
:100C200000998E4206D101982A68012383409A4395
:100C30002A6078E0864205D029698E4271D3B06877
:100C4000B8426ED10098C6600099B1606BE0B86997
:100C50000090FE68BE420CD0B8682969884223D350
:100C6000C268BA4204BFB168B9421DD1C660B06063
:100C70001CE007F114010E6836B907F110010E6887
:100C8000A6B101E011460E6806F1140210680028B2
:100C900002BF06F1100210680028F3D128698142D2
:100CA00002D300220A6001E000F0F7F90098002862
:100CB00039D0F86905F5987101EB80010A6897420F
:100CC0000AD126BB6A68012303FA00F022EA000079
:100CD00068600020086026E000992869814213D3EB
:100CE0000869B84214BF4E610E61E6B129698E42AF
:100CF00017D30098B061386958B1884226BF306177
:100D0000866100F0CAF904E000F0C7F9EDE70E6073
:100D1000ECE7786938B12969884202D3706186614D
:100D200001E000F0BAF902997F188B44796849080C
:100D3000490079604BF0010060604FEADB0644F83F
:100D40000BB01F2E22D805F1280000EBC607B946CC
:100D5000BBF1100F38BF00F0A0F9286820FA06F1A7
:100D6000CA0705D4012101FA06F606432E6006E003
:100D7000B868296988422CBF814600F08EF9BC60B2
:100D8000C9F80C40C4F80890E7606DE05FEA1B20EA
:100D900008BF002123D0B0F5803F28BF1F211ED2FD
:100DA000A0F58072120C02F008029040A0F580516C
:100DB000090C01F004018840A0F580431B0CC2F12E
:100DC0000E0203F00203521AD21A984002EBD032FC
:100DD000D01D2BFA00F101F0010101EB4201E161AC
:100DE000002305F59872636102EB810023616A6854
:100DF00022FA01F3DE0707D4012303FA01F11143BC
:100E000069600460A0611DE002681F291DBF4908D8
:100E1000C1F119010BFA01F1594600E00246506890
:100E2000C008C000584510D002F11003C80F03EBF2
:100E30008003490018680028F0D12869834211D343
:100E40001C60A261E460A4600EE0296990688A4297
:100E500028BF884206D3C4609460A060E26000208E
:100E6000A06101E000F019F908F108080DE1214640
:100E70002846FFF73BF90168426801EB020AAAF134
:100E8000270111F007000EBF0021C1F1080101F098
:100E900007010AEB0100A0F12F0B04F110018B45B3
:100EA00038BFA3460BF11802002101920091A7F16F
:100EB000280241462846FFF743F90BF1080010F0DD
:100EC000070F18BF00F0E9F81B20CBF8040005F568
:100ED000E07292E809500BF10801072281E80950FD
:100EE00000210BF10800C5F8CC11C5F8C801C5F800
:100EF000C08101980099C5F8C47100E0001D491C2B
:100F000000F1080353454260F8D30129D8BF00F02F
:100F1000C4F8A34500F0A680ABEB040B201D221DF6
:100F200050F80B104908490042F80B104BF0010033
:100F300060604FEADB0A44F80BB0BAF11F0F23D808
:100F400005F1280000EBCA084746BBF1100F38BF77
:100F500000F0A3F8286820FA0AF1CA0705D4012195
:100F600001FA0AF10843286007E0D8F80800296967
:100F700088422CBF074600F090F8C8F80840FC6093
:100F8000A760C4F80C806DE05FEA1B2008BF002159
:100F900023D0B0F5803F28BF1F211ED2A0F580725C
:100FA000120C02F008029040A0F58051090C01F0EB
:100FB00004018840A0F580431B0CC2F10E0203F02F
:100FC0000203521AD21A984002EBD032D01D2BFAEB
:100FD00000F101F0010101EB420105F598720023D7
:100FE00002EB8100E161636123616A6822FA01F327
:100FF000DB0707D4012303FA01F1114369600460A0
:10100000A0611DE002681F291DBF4908C1F1190137
:101010000BFA01F1594600E002465068C008C000D2
:10102000584510D002F11003C80F03EB80034900AC
:1010300018680028F0D12869834211D31C60A2618E
:10104000E460A4600EE0296990688A4228BF884263
:1010500006D3C4609460A060E2600020A06101E05B
:1010600000F01BF8E86886420DD2801BA969E86091
:101070008A19AA6140F00100506046F003064E60F4
:1010800001F1080801E04FF00008AFF3008040468E
:1010900000F000B803B0BDE8F08F012000F016B8F2
:1010A0000749086808B1002070470648C008C0001A
:1010B00008600549C908C900091A0160704700BFE6
:1010C000A42E0020BF320020B834002080B5AFF33A
:1010D0000080024A11001820ABBEFBE72600020088
:1010E00080B500F038F9002807D00120DFF8381764
:1010F0000870DFF8340700781EE000F080F8002860
:1011000007D00120DFF820170870DFF81C070078EF
:1011100012E000F012F8002807D00120DFF80817CD
:101120000870DFF80407007806E00420DFF8F816FE
:101130000870DFF8F406007802BD18B58FB0DFF84C
:10114000EC06006850F00100DFF8E0160860DFF8F8
:10115000DC06006810F0010000900098DFF8D0066F
:101160000068DFF8D016B0FBF1F0441E5FF080405D
:10117000DFF8C41608601D20DFF8BC16C860200028
:1011800080B2DFF8B41648600020DFF8AC160861C2
:101190000020DFF8A4168860DFF89C0600F070FBE2
:1011A000002801D0012028E00020089000200A90AB
:1011B00009200990002208A9DFF87C0600F0D6FB80
:1011C000002801D0012018E00020019000200390A9
:1011D00015200290042201A9DFF85C0600F0C6FB8E
:1011E000002801D0012008E0022200211C2000F08C
:1011F00071FD1C2000F083FD002010B010BD80B5F3
:10120000DFF83806006850F00100DFF8301608609B
:10121000DFF82806006810F0010000900098DFF861
:101220002006DFF8201608601020DFF81816486046
:101230000020DFF8101688600020DFF80816C8606C
:101240000020DFF8001688614FF48070DFF8F41595
:1012500008614FF48060DFF8EC1548614FF40050EE
:10126000DFF8E015C861DFF8DC0500F06FFD00284D
:1012700001D001206EE0DFF8D005DFF8D01508605E
:101280001020DFF8C81548600020DFF8C01588601E
:101290008020DFF8B815C8600020DFF8B01588613D
:1012A0004FF48070DFF8A41508614FF48060DFF818
:1012B0009C1548614FF40050DFF89015C861DFF8C5
:1012C0008C0500F043FD002801D0012042E0DFF84A
:1012D0008005DFF8801508601020DFF87815486079
:1012E0000020DFF8701588600020DFF86815C860FE
:1012F0000020DFF8601588614FF48070DFF8541526
:1013000008614FF48060DFF84C1548614FF40050DD
:10131000DFF84015C861DFF83C0500F017FD002834
:1013200001D0012016E00FF23D220021DFF8240554
:1013300000F006FE0FF2D1220221DFF8180500F0BE
:10134000FFFD01220021112000F0C4FC112000F05B
:10135000D6FC002002BD00B585B0DFF8FC040068B3
:1013600050F00400DFF8F0140860DFF8EC040068C7
:1013700010F00400009000980320019001200290DA
:10138000032004900020039001A9DFF8D00400F0AE
:1013900005FE002005B000BD80B5DFF88C040078A4
:1013A0000428FAD10220DFF8801408701D20DFF82D
:1013B000B014086041F29053DFF8A824DFF8A814B5
:1013C000DFF8800400F0B7F841F29053DFF894247E
:1013D000DFF89814DFF8740400F0ADF841F2905390
:1013E000DFF88024DFF88814DFF8680400F0A3F841
:1013F000F020DFF8801408605FF47020DFF87414C8
:1014000008605FF07060DFF86C140860DFF8440477
:101410000068006850F00E00DFF8381409680860B2
:10142000DFF820040068006850F00100DFF81414B1
:1014300009680860DFF814040068006850F00100D3
:10144000DFF8081409680860DFF80804006800681D
:1014500050F00100DFF8FC13096808600020DFF895
:1014600018140860DFF8D0030068C06850F480707A
:10147000DFF8C4130968C860DFF8BC030068C068FF
:1014800050F40070DFF8B0130968C860DFF8A803F3
:101490000068C06850F48060DFF89C130968C86079
:1014A000012200215FF0804000F07CFB012204213A
:1014B0005FF0804000F076FB1D20DFF87C130968A8
:1014C0004862DFF874030068006850F00100DA49F0
:1014D0000968086001BD80B5DFF8780300F069FC99
:1014E00001BD80B500F001F801BD80B51C2000F001
:1014F00013FCD1480068006A41F2111108420ED174
:10150000CD480068006A40F24441084207D1CA4809
:101510000068006840084000C74909680860C6487C
:101520000068C06840084000C3490968C8600420DA
:10153000BD49087001BD30B40125046CA540C46BE1
:101540006560046863604468102C04D10468A2607C
:101550000468E16003E00468A1600468E26030BCF4
:101560007047000010B50400112000F0D5FBB5480D
:101570000068006840084000B24909680860B34844
:101580000068006840084000B04909680860B14838
:101590000068006840084000AE4909680860A64835
:1015A0000068C06830F48070A3490968C860A24828
:1015B0000068C06830F400709F490968C8609E48A0
:1015C0000068C06830F480609B490968C8600022E8
:1015D00000215FF0804000F0E5FA002204215FF076
:1015E000804000F0DFFA40F2DC509D4908600020A6
:1015F000A249086090480068C06850F001008E4918
:101600000968C86010BD0000FEE738B5864800785C
:101610000428FBD100242000C0B2022812D20025E9
:10162000280080B273280BD20020009000230022F3
:10163000290089B22000C0B200F005F86D1CEFE768
:10164000641CE8E731BD2DE9F043079C0500EDB2CD
:10165000022D03D20D00ADB2732D00D3E2E0724D26
:101660002D78042DFBD100263500EDB2082D80F237
:10167000D9807E4F8C461FFA8CFC5FF0180E350027
:10168000EDB20EFB0C5CDFF8E4E188461FFA88F847
:101690005FF018093500EDB209FB08583EF8185004
:1016A0005FF0010E1EFA00FE35EA0E0527F81C5009
:1016B0006E4F8C461FFA8CFC5FF0180E3500EDB2B1
:1016C0000EFB0C5C07EB4C07DFF8A0C18E461FFA3F
:1016D0008EFE5FF018083500EDB208FB0E5E0CEBD5
:1016E0004E052D8A5FF0010C1CFA00FC35EA0C0552
:1016F0003D825E4F8C461FFA8CFC5FF0180E350061
:10170000EDB20EFB0C5C07EB4C07DFF860C18E46B8
:101710001FFA8EFE5FF018083500EDB208FB0E5E72
:101720000CEB4E052D8C5FF0010C1CFA00FC35EA29
:101730000C053D844D4F8C461FFA8CFC5FF0180E53
:101740003500EDB20EFB0C5CDFF820E188461FFA95
:1017500088F85FF018093500EDB209FB08583EF82B
:1017600018509E465FFA8EFE1EFA06FE5FEAEE1ED7
:101770001EF0010E1EFA00FE5EEA050527F81C5059
:101780003A4F8C461FFA8CFC5FF0180E3500EDB214
:101790000EFB0C5C07EB4C07DFF8D0C08E461FFA3F
:1017A0008EFE5FF018083500EDB208FB0E5E0CEB04
:1017B0004E052D8A94465FFA8CFC1CFA06FC5FEA03
:1017C000EC1C1CF0010C1CFA00FC5CEA05053D82D7
:1017D000264F8C461FFA8CFC5FF0180E3500EDB2D8
:1017E0000EFB0C5C07EB4C07DFF880C08E461FFA3F
:1017F0008EFE5FF018083500EDB208FB0E5E0CEBB4
:101800004E052D8CA4465FFA8CFC1CFA06FC5FEAA0
:10181000EC1C1CF0010C1CFA00FC5CEA05053D8484
:10182000761C21E7BDE8F0830A0000201C1002406E
:101830000400002000366E01642D002014100240C8
:101840001C000240AC2D002058000240F02D00206A
:1018500080000240342E0020181002400008014091
:101860002C0000400C0801402E2D00080C00002028
:10187000122F000804000240100000402400004025
:1018800010B50400002C01D101202FE094F83D0098
:10189000002805D1002084F83C00200000F0BCFCAA
:1018A000022084F83D00211D206800F08FF80120FF
:1018B00084F84600012084F83E00012084F83F00AF
:1018C000012084F84000012084F84100012084F8C0
:1018D0004200012084F84300012084F844000120E4
:1018E00084F84500012084F83D00002010BD01006F
:1018F00091F83D00012801D0012030E0022081F85C
:101900003D000868C06850F001000B68D8600868A6
:10191000DFF84C3098420DD00868B0F1804F09D004
:101920000868DFF84030984204D00868DFF83830A3
:1019300098420DD10868806810F007000200062A5E
:101940000CD00868006850F001000B68186005E0D2
:101950000868006850F001000B68186000207047AC
:10196000002C0140000400400008004070B5040055
:101970000D00160094F83C00012801D1022024E05B
:10198000012084F83C003000002806D0042809D04B
:1019900008280CD00C280FD013E02900206800F094
:1019A00047F80EE02900206800F06FF809E02900F0
:1019B000206800F09CF804E02900206800F0C8F8D6
:1019C000FFE7002084F83C00002070BD0368724AE5
:1019D000904208D0B0F1804F05D0704A904202D0BA
:1019E0006F4A904203D133F070034A6813436A4A46
:1019F000904208D0B0F1804F05D0684A904202D0A2
:101A0000674A904203D133F44073CA68134333F0FA
:101A100080034A69134303608A68C2620A6882626B
:101A20005D4A904201D10A69026301224261704716
:101A300030B4026A520852000262046A456883693F
:101A400033F070039B089B000A68134334F00204D0
:101A50008A681443504A904205D134F00804CA6899
:101A6000144334F004044C4A904207D135F4807595
:101A700035F400754A6915438A69154345608361E9
:101A80004A684263046230BC704730B4026A32F084
:101A900010020262036A4468826932F4E04232F45E
:101AA00040720D6852EA052233F020038D6853EA34
:101AB0000513394DA84206D133F08003CD6853EAAF
:101AC000051333F04003344DA84209D134F4806447
:101AD00034F400644D6954EA85048D6954EA850440
:101AE000446082614D688563036230BC704730B4E6
:101AF000026A32F480720262046A4568C36933F094
:101B000070039B089B000A68134334F400748A68CE
:101B100054EA0224204A904206D134F40064CA6890
:101B200054EA022434F480641B4A904209D135F40B
:101B3000805535F400554A6955EA02158A6955EA17
:101B400002154560C3614A68C263046230BC7047D5
:101B500030B4026A32F480520262036A4468C26995
:101B600032F4E04232F440720D6852EA052233F456
:101B700000538D6853EA0533074DA84204D134F46D
:101B800080444D6954EA85144460C2614D6805641F
:101B9000036230BC70470000002C0140000400408C
:101BA0000008004030B4012411F01F0314FA03F3BD
:101BB000046A9C430462046A11F01F0512FA05F5D9
:101BC0002C43046230BC704710F0070356490A6882
:101BD0004FF6FF010A4052EA032254490A43524990
:101BE0000A60704750480068C0F302207047010047
:101BF00049B2002909D4012210F01F018A404C4942
:101C000003005BB25B0941F823207047010049B231
:101C1000002909D4012210F01F018A404549030020
:101C20005BB25B0941F82320704710B4020052B246
:101C3000002A05D40A01404B040064B21A5508E09A
:101C40000A013E4B040064B214F00F04234403F86D
:101C5000042C10BC704770B4030013F00704D4F1D7
:101C60000700052801D3042001E0D4F10700251D59
:101C7000072D01D2002500E0E51E012616FA00F02E
:101C8000401E0140A940012010FA05F56D1E2A40B2
:101C90001143080070BC704710B50400601EB0F11D
:101CA000807F01D301200EE0601E254908600F21CE
:101CB0005FF0FF30FFF7B9FF0020224908600720DE
:101CC00021490860002010BD10B504002000FFF776
:101CD0007BFF10BD2DE9F04104000D001600002728
:101CE000FFF780FF8046320029004046FFF7B3FF30
:101CF0000100200040B2FFF798FFBDE8F08110B569
:101D00000400200040B2FFF772FF10BD10B50400C0
:101D10002000FFF7C1FF10BD10B50400200040B245
:101D2000FFF774FF10BD00000CED00E00000FA05A5
:101D300000E100E080E200E000E400E018ED00E0F7
:101D400014E000E018E000E010E000E001000022F4
:101D5000002901D101202BE00B68DFF8C001C31876
:101D60001420B3FBF0F080000864DFF8B401C8630E
:101D7000022081F82100086803686FF30D1348689A
:101D8000034388680343C8680343086903434869F9
:101D9000034388690343C86903430868036000205C
:101DA0008863012081F82100002081F820000020B4
:101DB000704770B50400E06B056820680668042170
:101DC000206C81400D423ED070073CD520680068F1
:101DD000800605D42068006830F00400216808609F
:101DE00020685049884201D1042023E020684E49F0
:101DF000884201D140201DE020684C49884202D130
:101E00004FF4806016E020684949884202D14FF4BF
:101E100080400FE020684749884202D15FF480206B
:101E200008E020684449884202D15FF4800001E064
:101E30005FF0806041490860E06A00286DD02000B2
:101E4000E16A884769E00221206C81400D4244D05C
:101E5000B00742D520680068800608D42068006872
:101E600030F00A0021680860012084F82100206811
:101E70002C49884201D1022023E020682A49884267
:101E800001D120201DE020682849884202D14FF46A
:101E9000007016E020682649884202D14FF40050B5
:101EA0000FE020682349884202D15FF4003008E047
:101EB00020682149884202D15FF4001001E05FF000
:101EC00000701E490860002084F82000A06A0028E5
:101ED00023D02000A16A88471FE00821206C8140A0
:101EE0000D421AD0300718D52068006830F00E0077
:101EF000216808600121206C8140E06B4160012075
:101F0000A063012084F82100002084F82000206BC9
:101F1000002802D02000216B884770BDF8FFFDBF6C
:101F200000000240080002401C0002403000024055
:101F300044000240580002406C000240040002408D
:101F400010B40300002493F82000012801D10220DE
:101F500022E0012083F8200093F82100012814D109
:101F60000800C0B2002805D0022807D004D30328F7
:101F700006D007E09A620AE0DA6208E01A6306E037
:101F80005A6304E00120040001E001200400002065
:101F900083F820002000C0B210BC70472DE9F84340
:101FA00002005FF0000E5FF00008086830FA0EF0E3
:101FB000002800F00481012010FA0EF003000868E8
:101FC000184004009C4240F0F7804868002831D057
:101FD000012820D0022825D003283CD011281DD06C
:101FE000122823D0DFF8F0C1604523D0DFF8ECC120
:101FF00060451FD0DFF8E8C160451BD0DFF8E4C1C1
:10200000604517D0DFF8E0C1604513D0DFF8DCC1D0
:1020100060450FD022E0C86880461FE0C868001DF8
:1020200080461BE0C8680830804617E0C8680C305E
:10203000804613E08868002802D10420804609E029
:102040008868012803D108208046136102E0082037
:102050008046536102E000208046FFE7B4F5807FB0
:1020600001D2160000E0161DB4F5807F02D25FEAAF
:102070008E0702E0BEF10807BF00D6F800C00F20AF
:10208000B8403CEA000C18FA07F050EA0C0CC6F80D
:1020900000C04868C00040F18F805548006850F08B
:1020A0000100DFF84CC1CCF800005148006810F086
:1020B0000100009000984F48F4465FEA9C0C50F8ED
:1020C0002CC05FF00F091EF00300C0B2800019FAA7
:1020D00000F93CEA090C4848824202D15FF000094D
:1020E00013E04648824202D15FF001090DE0444806
:1020F000824202D15FF0020907E04248824202D1E7
:102100005FF0030901E05FF0040965461EF003007B
:10211000C0B2800019FA00F959EA05053548F446BD
:102120005FEA9C0C40F82C504868C00307D536483D
:1021300000682043DFF8D0C0CCF8000006E0324849
:102140000068A043DFF8C0C0CCF8000048688003F6
:1021500007D52E4800682043DFF8B0C0CCF8000057
:1021600006E02A480068A043DFF8A0C0CCF80000D1
:102170004868C00207D5264800682043DFF890C0B1
:10218000CCF8000006E022480068A043DFF880C0D9
:10219000CCF800004868800207D51E48006820433C
:1021A000DFF870C0CCF8000006E01A480068A043D1
:1021B000DFF860C0CCF800001EF1010EF5E6BDE8C6
:1021C000F183020090680B009BB2184201D00120FD
:1021D00000E00020C0B27047000011100000121093
:1021E0000000211000002210000031100000321009
:1021F000181002400800014000080140000C014096
:10220000001001400014014000040140040401409A
:10221000080401400C04014070470EE00268436866
:10222000024408305FEAC37C44BF4B445B1E52F853
:1022300004CB43F804CB091FF9D150F8041B002943
:10224000ECD17047F8B50400002C01D1012039E22F
:102250002078C00740F18480DFF87806006810F02D
:102260000C0004280BD0DFF86C06006810F00C009E
:1022700008280ED1DFF85C060068C00309D5DFF836
:102280005006006880036BD56068002868D1012083
:1022900018E26068B0F5803F08D1DFF834060068C6
:1022A00050F48030DFF82816086038E060680028B5
:1022B00010D1DFF81C06006830F48030DFF810160B
:1022C0000860DFF80C06006830F48020DFF80016A4
:1022D000086024E06068B0F5A02F10D1DFF8F005A9
:1022E000006850F48020DFF8E8150860DFF8E005AA
:1022F000006850F48030DFF8D81508600FE0DFF890
:10230000D005006830F48030DFF8C4150860DFF8CD
:10231000C005006830F48020DFF8B41508606068FC
:1023200000280ED000F0F6FA0500DFF8A4050068DA
:10233000800315D400F0EEFA401B6528F5D3032086
:10234000C0E100F0E7FA0500DFF8840500688003CB
:1023500006D500F0DFFA401B6528F5D30320B1E174
:10236000207880075CD5DFF86C05006810F00C0F52
:102370000BD0DFF86005006810F00C0008281AD1B7
:10238000DFF850050068C00315D4DFF84405006885
:10239000800704D52069012801D0012092E1DFF8EF
:1023A0003005006830F0F800616950EAC100DFF8DC
:1023B0002015086034E0206900281ED00120DFF8D5
:1023C0002815086000F0A6FA0500DFF8040500688B
:1023D000800706D400F09EFA401B0328F5D30320A3
:1023E00070E1DFF8EC04006830F0F800616950EA51
:1023F000C100DFF8DC14086012E00020DFF8E81408
:10240000086000F087FA0500DFF8C4040068800760
:1024100006D500F07FFA401B0328F5D3032051E1D5
:10242000207800072CD5A069002816D00120DFF8FD
:10243000BC14086000F06EFA0500DFF8A80400681C
:10244000800706D400F066FA401B0328F5D303206A
:1024500038E1012000F028FA12E00020DFF88C14A7
:10246000086000F057FA0500DFF87804006880077C
:1024700006D500F04FFA401B0328F5D3032021E1D5
:102480002078400740F1A8800027DFF86404006846
:10249000C00010D4DFF85804006850F08050DFF816
:1024A00050140860DFF84804006810F08050009075
:1024B000009801200700DFF83C040068C00516D42E
:1024C000DFF83004006850F48070DFF828140860EA
:1024D00000F020FA0500DFF81C040068C00506D4EF
:1024E00000F018FA401B6528F5D30320EAE0E06805
:1024F000012808D1DFF80004006850F00100DFF87F
:10250000F813086037E0E068002810D1DFF8E8032E
:10251000006840084000DFF8E0130860DFF8D803E7
:10252000006830F00400DFF8D013086023E0E068B2
:10253000052810D1DFF8C003006850F00400DFF870
:10254000B8130860DFF8B003006850F00100DFF84E
:10255000A81308600FE0DFF8A003006840084000FF
:10256000DFF894130860DFF89003006830F004008F
:10257000DFF884130860E068002810D000F0CAF982
:102580000500DFF874030068800719D400F0C2F971
:10259000401B41F289318842F3D3032092E000F0DE
:1025A000B9F90500DFF850030068800708D500F08E
:1025B000B1F9401B41F289318842F3D3032081E015
:1025C0003800C0B2012807D1DFF82403006830F0DA
:1025D0008050DFF81C130860E069002871D0DFF834
:1025E000F402006810F00C00082855D0E0690228B9
:1025F0003FD10020DFF80413086000F08BF90700DA
:10260000DFF8CC020068800106D500F083F9C01B1A
:102610000328F5D3032055E0206AB0F5803F09D1A7
:10262000DFF8B002016831F40031A0680143DFF83F
:10263000A4020160DFF89C02016831F47411206A81
:102640000143606A0143DFF88C0201600120DFF87A
:10265000AC12086000F05EF90500DFF87402006853
:1026600080012ED400F056F9401B0328F5D3032037
:1026700028E00020DFF88412086000F04BF9050024
:10268000DFF84C02006880011BD500F043F9401BC5
:102690000328F5D3032015E0E069012801D10120CA
:1026A00010E0DFF830020068060016F48030216A7E
:1026B000884204D116F47010616A884201D001206A
:1026C00000E00020F2BD70B504000D00002C01D127
:1026D0000120AFE0DFF82802006810F00700A842F0
:1026E00011D2DFF81C020068C008C0002843DFF8E0
:1026F00010120860DFF80802006810F00700A84216
:1027000001D0012096E0207880071FD5207840076F
:1027100007D5DFF8C001006850F4E060DFF8B411BD
:1027200008602078000707D5DFF8A801006850F49A
:102730006050DFF8A0110860DFF89801016831F0FF
:10274000F001A0680143DFF88C0101602078C00728
:1027500034D56068012806D1DFF874010068800371
:1027600010D4012066E06068022805D1584800684E
:10277000800107D401205DE055480068800701D43E
:10278000012057E0534801688908890060680143C7
:102790005048016000F0BEF806004E48006810F096
:1027A0000C006168B0EB810F08D000F0B3F8801B1B
:1027B00041F289318842F0D303203BE05048006861
:1027C00010F0070085420ED24D480068C008C000D6
:1027D00028434B4908604A48006810F00700A842A7
:1027E00001D0012026E02078400707D5394801684C
:1027F00031F4E061E0680143364801602078000769
:1028000008D53448006830F46050216950EAC100AE
:102810003049086000F00FF83A492E4A1268C2F3B6
:102820000312895CC8402D4908602D48006800F0FB
:1028300077F8002070BD78B585B001A83249102224
:1028400000F094F831480088ADF800000020002125
:102850000022002300241F4D2D6815F00C06042EC5
:1028600002D0082E02D01CE01B481BE001A8C5F3D3
:102870008346805D0300E8030DD56846154E366833
:10288000C6F34046805D0100134800FB03F0B0FB37
:10289000F1F0020003E01E4800FB03F0020010000C
:1028A00000E00D4806B070BD81B00C490968C90848
:1028B0004FF47A72B1FBF2F101FB00F1009100BF1D
:1028C00000994A1E00920029F9D101B0704700001A
:1028D000001002400410024000127A0004000020A0
:1028E00000000020241002400000424280044242C6
:1028F0001C10024000700040201002406000424264
:10290000002002400C310008FC300008F2290008C9
:1029100000093D0001480068704700BFA02E00205C
:1029200010B504004FF47A700D490978B0FBF1F04E
:102930000C490968B1FBF0F0FFF7E8F9002801D075
:1029400001200CE0102C09D2002221005FF0FF30A2
:10295000FFF7C0F904480460002000E0012010BD2A
:10296000090000200400002000000020103A07D3D6
:1029700030B4B1E83810103AA0E83810F9D230BCC1
:10298000530724BFB1E80810A0E8081044BF51F86D
:10299000043B40F8043BD20724BF31F8022B20F857
:1029A000022B44BF0B7803707047121F17D35B00D4
:1029B00009D151F8043B20F8023B1B0C121F20F8F0
:1029C000023BF6D20BE051F8043B00F8013B1B0A36
:1029D00020F8023B1B0C121F00F8013BF3D238BF5A
:1029E000121D521E24BF11F8013B00F8013BF8D81C
:1029F0007047010270B504000D0016000020DFF8DA
:102A0000D81208800020DFF8D41208800020B449D2
:102A100008800020B34908700020B34908700020E6
:102A2000B2490870B2480460B2480560B248066016
:102A300000F05AF8002805D00120B0490870AF48CE
:102A400000780EE000F00EF8002805D00120AB4918
:102A50000870AA48007804E00020A8490870A74838
:102A6000007870BD1CB5A648006850F40060A44909
:102A70000860A348006810F4006000900098A14826
:102A8000006842F21071B0FBF1F0441E9E489F496D
:102A9000086009209D49C860200080B29B494860B9
:102AA00000209A49086100209849886000209749D1
:102AB00048610020954988619448FEF7E1FE0028AE
:102AC00001D001200FE0052205211920FFF702F9AE
:102AD0001920FFF714F98D48FEF709FF002801D0EF
:102AE000012000E0002016BD00B585B084480068D4
:102AF00050F00800824908608148006810F0080022
:102B0000009000980B2001908148029001200390D2
:102B100001A98048FFF742FA032200210620FFF7AF
:102B2000D9F80620FFF7EBF8032200210720FFF772
:102B3000D1F80720FFF7E3F8032200210920FFF76F
:102B4000C9F80920FFF7DBF8002005B000BD80B50B
:102B50006E4800680069C00709D56C480068C06805
:102B6000C00704D57FF001006849096808616A4818
:102B70000068401C684908605A48007800280AD05C
:102B800001216448FFF71DFB002804D0524800884B
:102B9000401C5149088060480068604909688842C3
:102BA0000DD350480078002809D000204D49087006
:102BB000494800881E2802D14D48006880474A488D
:102BC000007800280AD002215248FFF7FAFA0028BC
:102BD00004D042480088401C404908804E480068A4
:102BE0004F49096888420DD33F480078002809D032
:102BF00000203D490870394800881E2802D13D4810
:102C0000006880473948007800280AD008214148E8
:102C1000FFF7D7FA002804D031480088401C30491B
:102C200008803D4800683F49096888420DD32F4815
:102C30000078002809D000202C4908702848008816
:102C40001E2802D12C480068804701BD80B5364857
:102C50000068C00705D5012033490860012000F055
:102C600065F800201C49088001201E4908702A4888
:102C700000681E302949086001BD80B52A480068F7
:102C8000800705D5022028490860022000F04EF890
:102C90000020124908800120134908701E4800686E
:102CA0001E301F49086001BD80B51F48006800073D
:102CB00005D508201C490860082000F037F80020DE
:102CC00007490880012009490870134800681E3030
:102CD0001449086001BD0000A82E0020AA2E002083
:102CE000AC2E0020AE2E0020AF2E0020B02E0020F3
:102CF000942E0020982E00209C2E002008000020FA
:102D00001810024004000020002C01401C2D00205F
:102D100000001110000C0140842E0020882E00209D
:102D20008C2E0020902E0020140401407047FFFFDD
:102D300038B50024FF205949087000205849087010
:102D400000205849087000F0B5F800F053F800F082
:102D50008AF8FEF7C5F9042800D0FEE70FF28102D9
:102D60000FF269010FF25100FFF744FE002800D076
:102D7000FEE70A214C4800F0B1F8002800D0FEE739
:102D8000FEF743FC641E21000C007320454A1278B4
:102D90000092434A1378414A1278B1FBF0F500FBE8
:102DA000151189B20020FEF74EFCFEF7F5FA0A2055
:102DB00000F0B0F8E4E70000FF2038490870002078
:102DC00037490870002037490870704700203349A0
:102DD0000870FF203249087000203249087070479F
:102DE00000202E49087000202D490870FF202D4931
:102DF0000870704700B58FB02822002105A800F0A8
:102E00009DF814220021684600F098F801200590F2
:102E10005FF4803006900020079001200990022086
:102E20000C905FF480300D905FF4E0100E9005A8D8
:102E3000FFF708FA002801D000F03AF80F200090C0
:102E400002200190002002904FF480600390002047
:102E5000049002216846FFF736FC002801D000F0FC
:102E600027F80FB000BD81B01048006850F0100086
:102E70000E4908600D48006810F01000009000989E
:102E80000A48006850F020000849086007480068B8
:102E900010F020000090009801B07047B12E002083
:102EA000B22E0020B32E0020782E002018100240F1
:102EB00072B6FEE780B50848006850F01000064979
:102EC00008600320FEF700FF0020FFF729FD00F057
:102ED0003FF8002002BD00000020024038B5040089
:102EE0000D00280080B2002801D1022010E0280047
:102EF00080B2FDF745F92060002C01D1012007E0E8
:102F0000A5800020E080002020810020608100203A
:102F100032BD000070B50400FFF7FCFC0500260080
:102F200016F1010F02D0044800788619FFF7F2FC71
:102F3000401BB042FAD370BD0900002010B5044612
:102F400010460A460146204600F022F8204610BDF1
:102F500081B00D48006850F001000B4908600A4834
:102F6000006810F00100009000980848006850F0D8
:102F70008050064908600548006810F080500090B5
:102F8000009801B0704700BF181002401C100240AA
:102F900062F30F2262F31F42401810F0030308D0BF
:102FA000C91A1FD3DB0748BF00F8012D28BF20F83E
:102FB000022D130030B414461546103928BF20E9FD
:102FC0003C00FAD8490728BF20E90C0048BF40F868
:102FD000042D890028BF20F8022D48BF00F8012DDC
:102FE00030BC7047C91818BF00F8012DCB0728BFA7
:102FF00000F8012D704730B4002512E050F8042B82
:10300000D30744BF4A44521E091F042942F8045BF7
:10301000FAD213468C0744BF15809B1CC90748BFD2
:103020001D7050F8041B0029E8D130BC7047000027
:1030300010B5074979441831064C7C44163404E035
:103040000A68081D114488470146A142F8D110BD05
:1030500008000000280000009FFFFFFFA82E0000CE
:103060000C00002000000000B3F1FFFF0C00000086
:10307000BC000000000000200000000000F00DF87F
:10308000002801D0FFF7D4FFAFF300800020AFF39A
:103090000080FFF74DFE00F002F80120704700F0BD
:1030A00001B8000007463846FEF710F8FBE70000BD
:1030B0000548014603B4684680F30988AFF30080F1
:1030C000AFF30080FFF7DAFFA5EDF5FE03480168D6
:1030D000034800784118014801607047A02E002085
:1030E00009000020FEE7FEE7FEE7FEE7FEE7704787
:1030F0007047704780B5FFF7E9FF01BD0203040583
:10310000060708090A0B0C0D0E0F10100000000036
:103110000000000001020304060708090148804777
:1031200001480047CD310008B13000081000000010
:103130000024F40002010500FFF7FEBFFFF7FEBF09
:10314000FFF7FEBFFFF7FEBFFFF7FEBFFFF7FEBFB3
:10315000FFF7FEBFFFF7FEBFFFF7FEBFFFF7FEBFA3
:10316000FFF7FEBFFFF7FEBFFFF7FEBFFFF7FEBF93
:10317000FFF7FEBFFFF7FEBFFFF7FEBFFFF7FEBF83
:10318000FFF7FEBFFFF7FEBFFFF7FEBFFFF7FEBF73
:10319000FFF7FEBFFFF7FEBFFFF7FEBFFFF7FEBF63
:1031A000FFF7FEBFFFF7FEBFFFF7FEBFFFF7FEBF53
:1031B000FFF7FEBFFFF7FEBFFFF7FEBFFFF7FEBF43
:0E31C000FFF7FEBFFFF7FEBFFFF7FEBF704731
:04000005080030B10E
:00000001FF
